:020000040800F2
:10000000C004002099010008FB1500081B1500081A
:10001000F9150008510400087D1B000800000000CD
:100020000000000000000000000000001F16000893
:1000300053040008000000001D16000821160008E7
:10004000B3010008B3010008B3010008B3010008C0
:10005000B3010008B3010008B3010008B3010008B0
:10006000B3010008B3010008B3010008B3010008A0
:10007000B3010008B3010008B3010008B301000890
:10008000B3010008B3010008B3010008B301000880
:10009000B3010008B3010008B3010008B301000870
:1000A000B3010008B3010008B3010008B301000860
:1000B000C5160008B3010008B3010008B301000829
:1000C000B3010008B3010008B3010008B301000840
:1000D000B3010008B3010008B3010008B301000830
:1000E000B3010008B3010008B3010008B301000820
:1000F000B3010008B3010008B3010008B301000810
:10010000B3010008B3010008B3010008B3010008FF
:10011000B3010008B3010008B3010008B3010008EF
:10012000B3010008B3010008B3010008B3010008DF
:10013000B30100080000000000000000B301000847
:10014000B3010008B3010008B3010008B3010008BF
:10015000B3010008B3010008B3010008B3010008AF
:10016000B3010008B3010008B3010008B30100089F
:10017000B3010008B3010008000000000000000007
:10018000B3010008DFF80CD000F050F90048004738
:10019000311D0008C004002006488047064800477B
:1001A000FEE7FEE7FEE7FEE7FEE7FEE7FEE7FEE727
:1001B000FEE7FEE77D160008850100082DE9F05FE7
:1001C0000546002092469B468846064681464024C6
:1001D0001BE0284641464746224600F0E0F85346D9
:1001E0005A46C01A914110D311461846224600F0D3
:1001F000C7F82D1A67EB01084F462246012000215F
:1002000000F0BEF817EB00094E41201EA4F10104D6
:10021000DFDC484631462A464346BDE8F09FD2B26D
:1002200001E000F8012B491EFBD270470022F6E7DF
:1002300010B513460A4604461946FFF7F0FF20465C
:1002400010BD80EA010210B502F00043400022D048
:100250004A001FD0010E01EB1261C0F35600C2F339
:10026000560240F4000042F40002A0FB0220000409
:100270007F39140400D0401C50EA124001D44000E1
:10028000491EC2B20C0604EBD010401C4008802A64
:1002900002D003E0002010BD20F00100002900DAA8
:1002A0000020184310BD30B480EA010202F000457E
:1002B00030F0004221F0004013D090B1C30DD40DB6
:1002C000C2F31601C0F31600E41A41F4000140F431
:1002D00000027D34914201D3641C00E04900002CEF
:1002E00002DA30BC002070474FF400000023914236
:1002F00001D3891A034340084FEA4101F7D151B1B4
:10030000914202D14FF0004105E002D24FF00101CD
:1003100001E06FF0010103EBC450284430BC00F051
:100320004EB896230022114600F052B820F000404B
:10033000C10DC0F3160040F400007F2901DA00204F
:100340007047962903DCC1F19601C8407047963981
:100350008840704730B50B4601460020202201241A
:1003600009E021FA02F59D4205D303FA02F5491B83
:1003700004FA02F52844151EA2F10102F1DC30BD99
:10038000202A04DB203A00FA02F100207047914055
:10039000C2F1200320FA03F3194390407047202A4A
:1003A00004DB203A21FA02F00021704721FA02F31F
:1003B000D040C2F1200291400843194670470029FD
:1003C000A8BF7047401C490008BF20F001007047DB
:1003D00010B4B0FA80FC00FA0CF050EA010404BF3B
:1003E00010BC704749B1CCF1200421FA04F411FA91
:1003F0000CF118BF012121430843A3EB0C01CB1DD5
:100400004FEA00614FEA102042BF002010BC704745
:1004100000EBC35010440029A4BF10BC7047401C1F
:10042000490008BF20F0010010BC7047064C074D82
:1004300006E0E06840F0010394E8070098471034B4
:10044000AC42F6D3FFF7A2FEAC1D0008CC1D00089D
:10045000FEE770472DE9F84FDFF888B100224FF032
:1004600001084FF0030A4FF00F090BF1040E00BF13
:100470000B6808FA02F42340A3426ED14D68022DA6
:1004800001D0122D0ED1D50800EB850CDCF82050E0
:100490005607F70E09FA07F6B5430E69BE402E431C
:1004A000CCF82060066855000F790AFA05FC07F0C1
:1004B000030726EA0C06AF40374307604E68012E5B
:1004C00005D0022E03D0112E01D0122E0ED1866837
:1004D000CF6826EA0C06AF40374387604668A643DC
:1004E0000C79C4F30014944034434460C4688E68AB
:1004F00024EA0C04AE402643C6604C68E4006AD58A
:10050000394C256845F480452560246822F00305B0
:1005100004F480440094354C2E19D6F80848950709
:100520002F0F09FA07F5AC43314DA84201D1002540
:1005300029E0304DA84201D1012524E02E4DA842EA
:1005400001D102251FE02D4DA84201D103251AE05B
:100550002B4DA84202D1042515E03CE0294DA842CC
:1005600001D105250FE0284DA84201D106250AE05A
:10057000264DA84201D1072505E0254DA84201D10D
:10058000082500E00925BD402543C6F80858DBF8DA
:1005900000405D464E689C43F60300D51C432C602A
:1005A000DEF8004075464E689C43B60300D51C43F8
:1005B0002C600C4D08352C684E689C43F60200D523
:1005C0001C432C60074D0C352C684E689C43B602CA
:1005D00000D51C432C60521C102AFFF449AFBDE823
:1005E000F88F0000003C01404438024000300140D8
:1005F000000002400004024000080240000C0240DB
:10060000001002400014024000180240001C02408A
:1006100000200240014800687047000034000020BC
:1006200002480168491C0160704700003400002046
:100630000B4810B5016841F400710160016841F494
:1006400080610160016841F480710160032000F065
:1006500061F8002000F006F800F018F8002010BD46
:10066000003C024010B5044607484FF47A71006818
:10067000B0FBF1F000F0CEFA00222146501E00F04F
:1006800029F8002010BD0000380000200A4808B5F5
:10069000016841F480410160006800F480400090EE
:1006A0000548001F016841F080510160006800F0BA
:1006B0008050009008BD00004438024000F01F0246
:1006C000012191404009800000F1E020C0F80011B4
:1006D00070470000F0B40E4B1B680C46C3F30223B6
:1006E000C3F10705042D00D90425191D072901D2DE
:1006F000002300E0DB1E012606FA05F1491E214019
:1007000099409E40761E16403143F0BC00F076BF03
:100710000CED00E0064900F0070208684FF6FF0301
:10072000184040EA0220034A104308607047000066
:100730000CED00E00000FA052DE9F0470E4605003B
:1007400063D0DFF81C81D8F80000F7B200F00F008A
:10075000B04207D288F80070D8F8000000F00F000F
:10076000B04252D128683F4C810712D5400703D5CB
:10077000206840F4E05020602878000703D5206806
:1007800040F4604020602068A96820F0F000084331
:1007900020602878C0072BD03249686808390128C2
:1007A00010D00968022810D0890700292DDA2168A5
:1007B00021F0030101432160FFF72CFF814641F244
:1007C000883A0EE009688903EFE78901EDE700BF89
:1007D000FFF720FFA0EB0901514502D90320BDE836
:1007E000F0872068696800F00C00B0EB810FEFD152
:1007F000D8F80010404601F00F01B14207D9077048
:10080000006800F00F00B04201D00120E7E728782F
:10081000400705D52068E96820F4E05008432060CF
:100820002878000706D52068296920F4604040EA4E
:10083000C100206000F04CF82168F02292FAA2F288
:1008400001F0F001B2FA82F2D140074A515CC8408F
:10085000064908600020FFF705FF0020BFE7000001
:10086000003C024008380240941D00083800002077
:1008700008480949006809684FF4E05292FAA2F268
:1008800001F4E051B2FA82F2D140044A515CC8400E
:10089000704700003800002008380240A41D0008FE
:1008A00008480949006809684FF4604292FAA2F2C8
:1008B00001F46041B2FA82F2D140044A515CC8406E
:1008C000704700003800002008380240A41D0008CE
:1008D000154810B5006810F00C02144813D04110F0
:1008E000042A0FD0082A0ED10F4C241F2268236837
:1008F00002F03F025B0207D52068C0F38810A0FB1E
:10090000010106E0084610BD2168C1F38811A1FB72
:1009100000010023FFF752FC2168C1F30141491C8B
:100920004900B0FBF1F010BD083802400024F4008B
:100930002DE9F84F04007BD0DFF8C8822078A8F1B9
:10094000040BC007ABF1040536D0D8F800104046C0
:10095000C1F38101012908D00068C0F38100022899
:100960000AD1DBF80000400206D52868800323D5B1
:1009700060680028DFD01FE0A2492079891F087035
:10098000606860B1FFF746FE064604E0FFF742FEEE
:10099000801B642874D828688003F7D50CE0FFF723
:1009A00039FE064605E000BFFFF734FE801B6428D1
:1009B000F0D828688003F7D42078934E80074FF052
:1009C000010A4FF0000742D5D8F80010404611F058
:1009D0000C0F08D00068C0F3810002280AD1DBF8B0
:1009E0000000400206D42868800714D5E06801287A
:1009F0001ED110E0E068E0B1C6F800A0FFF70AFEE3
:100A0000814605E0FFF706FEA0EB09000228C1D8E9
:100A100028688007F6D52868F82292FAA2F22169A0
:100A2000B2FA82F220F0F8009140084328600EE00C
:100A3000E5E03760FFF7EEFD814605E0FFF7EAFDF0
:100A4000A0EB090002281BD828688007F6D420787C
:100A5000000726D56D48616999B1C0F800A0FFF77D
:100A6000D9FD814606E000BFFFF7D4FDA0EB0900E9
:100A7000022805D863486C3000688007F4D510E080
:100A800087E00760FFF7C6FD814605E0FFF7C2FD7E
:100A9000A0EB090002287CD85A486C300068800717
:100AA000F4D42078400749D556483830016841F0E1
:100AB00080510160006800F0805000905448016847
:100AC00041F480710160FFF7A5FD814606E000BF9B
:100AD000FFF7A0FDA0EB090002285AD84C48006897
:100AE000C005F5D5DFF81C91207A09F1680989F86D
:100AF0000000A06888B1FFF78DFD009008E000BFFE
:100B0000FFF788FD0099411A41F2883081426ED882
:100B1000D9F800008007F3D510E0FFF77BFD0090C7
:100B200008E000BFFFF776FD0099411A41F28830D6
:100B300081425CD8D9F800008007F3D4A06948B39B
:100B4000D8F80010C1F38101022958D00228376675
:100B500003D0FFF75FFD04464CE0FFF75BFD07465F
:100B600005E000BFFFF756FDC01B64283FD828688A
:100B70008001F7D4D4E90701084347F6C07292FA1E
:100B8000A2F2616AB2FA82F291404FF0FF33A26A98
:100B900001E02CE031E003EB52024FF4403393FAD2
:100BA000A3F3B3FA83F39A40114308434FF0706202
:100BB00092FAA2F2E16AB2FA82F291400843CBF8CB
:100BC0000000C6F860A0FFF725FD044605E000BF61
:100BD000FFF720FD001B642809D828688001F7D59D
:100BE0000BE000BFFFF716FD001B642802D90320AD
:100BF000BDE8F88F28688001F4D40020F8E70120D0
:100C0000F6E700000838024000004742800E4742E5
:100C10000070004010B5401EB0F1807F01D301206C
:100C200010BD4FF0E02460610F21601700F0E6FC7A
:100C30000020A06107202061002010BD7047704790
:100C400030B590F83C20012A20D0012280F83C20C9
:100C5000022380F83D3003685C6824F070045C6017
:100C600003685C680D682C435C6003689C6824F032
:100C700080049C6003689C6849680C439C6080F811
:100C80003D20002180F83C10084630BD022030BDD8
:100C90002DE9F047007F00260127A94DDFF8A49237
:100CA000A94C012839D002287ED004287DD00828FC
:100CB00031D1E0784DF6FF78002877D001282AD18D
:100CC0000C21284600F042FB60862868016A01EA90
:100CD000080101622868016A01620C21284600F0BF
:100CE00059FA608E218E401A6082608B90B1FFF7B6
:100CF00018FB0546608AFFF714FB2946FFF7D3FA75
:100D00004946FFF79EFAFFF711FBC1B261848FA03D
:100D100000F036FFE670BDE8F08720784FF6F578F2
:100D200068B30128F7D10021854800F00FFBE0846B
:100D30002868016A01EA080101622868016A016203
:100D400000217F4800F026FAE08CA18C401AA08197
:100D5000A08A90B1FFF7E5FA0546A089FFF7E1FA0E
:100D60002946FFF7A0FA4946FFF76BFAFFF7DEFACC
:100D7000C1B2A18379A000F003FF2670CBE7002168
:100D80006F4800F0E3FAA0842868016A01EA0801CC
:100D900001622868016A41F002010162002168488D
:100DA00000F0F8F9277002E00BE05AE0A9E0A08813
:100DB00028B1A18C081AA082A08CA080ABE7A682E3
:100DC000FAE760784FF65F7868B30128A3D1042171
:100DD0005B4800F0BBFA60852868016A01EA0801F7
:100DE00001622868016A01620421554800F0D2F9C5
:100DF000608D218D401AE081E08A90B1FFF791FA71
:100E00000546E089FFF78DFA2946FFF74CFA494677
:100E1000FFF717FAFFF78AFAC1B2E18353A000F097
:100E2000AFFE667077E70421454800F08FFA208511
:100E30002868016A01EA080101622868016A41F034
:100E40002001016204213E4800F0A4F96770E088A7
:100E500028B1218D081AE082208DE0805BE7E682D0
:100E6000FAE7A0784FF2FF5868B3012886D108212D
:100E7000334800F06BFAE0852868016A01EA08014E
:100E800001622868016A016208212D4800F082F998
:100E9000E08DA18D401A2082208B90B1FFF741FA9E
:100EA0000546208AFFF73DFA2946FFF7FCF9494637
:100EB000FFF7C7F9FFF73AFAC1B221842FA000F07B
:100EC0005FFEA67027E708211D4800F03FFAA085C5
:100ED0002868016A01EA080101622868016A41F490
:100EE000007101620821164800F054F9A7702089AA
:100EF00028B1A18D081A2083A08D20810BE72683BD
:100F0000FAE70C210E4800F021FA20862868016AD1
:100F100001EA080101622868016A41F40051016296
:100F20000C21074800F036F9E770608928B1218E5E
:100F3000081A6083208E6081EDE66683FAE7000080
:100F40004000002000007A44000000204368616EE9
:100F50006E656C34203D2025640A00004368616E94
:100F60006E656C31203D2025640900004368616E88
:100F70006E656C32203D2025640900004368616E77
:100F80006E656C33203D2025640900002DE9F04199
:100F9000044690F83C000D4601283DD0012684F817
:100FA0003C60022084F83D00AAB3042A46D02068A1
:100FB000082A55D0D5E90027E968036A23F480534D
:100FC0000362D0F81CC0036A2CF4407C4CEA07276B
:100FD0004FF6FF7C27F470470CEA013139434FF498
:100FE000204723F4204307EA02321A43C161026218
:100FF0002068C16921F44061C1612068C169AA68A3
:1010000041EA0221C0F81C1084F83D60002084F8F9
:101010003C00BDE8F08101E00220FAE7D5E90012CA
:10102000EB68206800F0C4FB2068816921F00C01A6
:10103000816120688169AA6811430FE0D5E9001237
:10104000EB68206800F0F6FB2068816921F44061BC
:10105000816120688169AA6841EA02218161D3E740
:10106000D5E9002C2F7B016A21F480710162C169EE
:10107000036A21F0030141EA0C0121F0F00C390769
:101080004FF420674CEA116123F4206307EA02223F
:101090001A43C16102622068C16921F00C01C1617B
:1010A0002068C169AA681143ACE710B5040003D0F9
:1010B00094F83D0010B107E0012010BD002084F835
:1010C0003C00204600F00CF8022084F83D00211D71
:1010D000206800F0FDFA012084F83D00002010BDDA
:1010E000F0B587B0044614216846FFF79FF82068E2
:1010F000B0F1804F45D124480024016841F001013E
:101100000160006800F0010005901F481038016878
:1011100041F001010160016801F0010105910168E0
:1011200041F0020101600068012500F00200009515
:1011300005901220CDE901040320CDE90305134FEA
:1011400069463846FFF786F90C2000900226CDE963
:10115000016469463846CDE90345FFF77BF908206D
:101160000090CDE9016469460948CDE90345FFF7E0
:1011700071F9002211461C20FFF7ACFA1C20FFF782
:101180009DFA07B0F0BD0000403802400000024068
:101190000004024010B50268044631B1042908D0A9
:1011A000082915D00C2908D116E0D06840F00200BB
:1011B00002E0D06840F00400D0600122206800F016
:1011C000EBFA2068016841F001010160002010BDC8
:1011D000D06840F00800EFE7D06840F01000EBE77F
:1011E00070B50446006801694FF00005C9438907DE
:1011F00015D4C168C943890711D4E91E01610120D2
:101200002077206880698007204602D0FFF740FDE4
:1012100004E000F098F8204600F096F82577206862
:101220000169C943490717D4C168C943490713D4A1
:101230006FF004010161022020772068806910F4BA
:10124000407F204602D0FFF723FD04E000F07BF84A
:10125000204600F079F8257720680169C94309071D
:1012600016D4C168C943090712D46FF0080101619F
:10127000042020772068C0698007204602D0FFF74D
:1012800007FD04E000F05FF8204600F05DF82577E8
:1012900020680169C943C90617D4C168C943C90692
:1012A00013D46FF010010161082020772068C06915
:1012B00010F4407F204602D0FFF7EAFC04E000F083
:1012C00042F8204600F040F8257720680169C943BC
:1012D000C90708D1C168C943C90704D1891E016182
:1012E000204600F032F820680169C943090609D494
:1012F000C168C943090605D46FF080010161204629
:10130000FFF79CFC20680169C943490609D4C168FC
:10131000C943490605D46FF040010161204600F041
:1013200037F820680169C94389060BD4C168C943ED
:10133000890607D46FF0200101612046BDE87040A6
:10134000FFF77DBC70BD70477047704790F83C3028
:101350000022012B0AD0012380F83C3041B104293E
:1013600009D008290AD00C290DD10AE002207047C3
:1013700001684A6B07E001688A6B04E00168CA6B88
:1013800001E001680A6C002180F83C1010467047AB
:10139000704770B5040004D094F83900002510B1EE
:1013A00006E0012070BD84F83850204600F022F895
:1013B000242084F839002068C16821F40051C160FC
:1013C000204600F053FA2068016921F49041016140
:1013D0002068416921F02A0141612068C16841F417
:1013E0000051C160E563202084F8390084F83A0098
:1013F000002070BD10B586B0044614216846FEF783
:1014000015FF14492068884221D11348016841F032
:1014100010010160006800F0100005900E481438BB
:10142000016841F0010101600068694600F00100B7
:1014300005904FF4C06000900220019001200290BE
:1014400003200390072004900448FFF703F806B038
:1014500010BD00000010014044380240000002406E
:101460002DE9F843044690F839001F4616460D460C
:10147000202850D1A5B19EB194F8380001284AD057
:10148000012084F838004FF00008C4F83C80212087
:1014900084F83900FFF7BEF8A6848146E68426E08A
:1014A0000120BDE8F883E08C401EE084A0684B4634
:1014B000B0F5805F4FF000024FF0800120460097AA
:1014C00003D000F029FBE8B90DE000F025FBC8B916
:1014D00028882168C0F308004860206908B16D1CA5
:1014E00005E0AD1C03E0216815F8010B4860E08CB5
:1014F0000028D8D14B46002240212046009700F01A
:101500000BFB08B10320CCE7202084F8390084F8D5
:1015100038800020C5E70220C3E7FEE700B587B0AA
:1015200014216846FEF782FE11480021026842F04D
:1015300080020260026802F080020592026842F0B6
:1015400001020260026802F001020592026842F0A4
:10155000020202600068029100F002000590022081
:10156000CDE9000169460348FEF774FF07B000BDEE
:10157000303802400000024030B587B000241D48DA
:10158000059404940094019402944FF080410394D4
:10159000016040F67F41C0E9011444F61F61C0E9D3
:1015A00003148461FFF781FD049404A91148059494
:1015B000FFF746FB0A2501200095CDE90104002232
:1015C00069460C480394FFF7E1FC04226946094888
:1015D0000094FFF7DBFC02200090082269460548D2
:1015E000FFF7D4FC0C22694602480095FFF7CEFCB9
:1015F00007B030BD40000020FEE770470907090E24
:10160000002806DA00F00F0000F1E02080F8141D39
:10161000704700F1E02080F8001470477047704771
:10162000FEF7FEBF10B592B030216846FEF7FEFD12
:1016300014210CA8FEF7FAFD0120039010200224CB
:1016400004900020CDE906400C200890C0200990AD
:10165000042000940A900B906846FFF769F90F2068
:10166000CDE90C0480200E904FF4A0500F90109004
:1016700001210CA8FFF760F812B010BD0D480168F9
:1016800041F0010101600B4A00210832116002683B
:10169000094B1A400260031D084A1A60026822F4CE
:1016A0008022026003480C3001600549580608603A
:1016B0007047000000380240FFFFF6FE10300024A3
:1016C00008ED00E00148FFF78BBD0000400000205E
:1016D000F0B50268254C264D264E274F274B4FF07C
:1016E000804CA04209D0604507D0A84205D0B04246
:1016F00003D0B84201D0984204D122F0700E4A685B
:1017000042EA0E02A0421BD0604519D0A84217D071
:10171000B04215D0B84213D0984211D0184DA8420B
:101720000ED0184DA8420BD0174DA84208D0174D27
:10173000A84205D0164DA84202D0164DA84203D1AA
:1017400022F44075CA682A4322F080054A692A4378
:1017500002608A68C2620A688262A04201D098422E
:1017600001D10969016301214161F0BD000001401F
:101770000004004000080040000C0040000401404C
:101780000040014000440140004801400018004072
:10179000001C00400020004010B50123046A8B406B
:1017A0009C430462036A8A401343036210BD000035
:1017B00070B5046A24F0010404628469056A164E57
:1017C000B04214D0B0F1804F11D0144EB0420ED0C0
:1017D000134EB0420BD0134EB04208D0124EB0425E
:1017E00005D0124EB04202D0114EB04203D124F0C7
:1017F0000304144303E024F0030242F001041A0737
:1018000024F0F00444EA126225F00A0301F00A0110
:1018100019438261016270BD000001400004004074
:1018200000080040000C004000040140004001405E
:101830000018004030B5046A24F010040462846982
:10184000056A24F4407444EA022222F470444FF6FC
:10185000FF7202EA03322243A02425F0A00304EA27
:10186000011119438261016230BD00002DE9F04190
:1018700004460068016921F44052E16811430161A6
:101880002168C86849F20C6290432369A268E5693F
:101890001A4363692B431A430243CA6021684869AB
:1018A00020F44072A06910434861E1696425B1F5F4
:1018B000004F9748974A21684FF032083FD0914235
:1018C00001D081427CD1FEF7EBFF00EBC00101EBC0
:1018D000001061688900B0FBF1F6FEF7E1FF00EB54
:1018E000C00101EB001061688900B0FBF1F0B0FBB2
:1018F000F5F06FF01801484306EB800108EB01108A
:10190000B0FBF5F000F0F006FEF7CAFF00EBC001F7
:1019100001EB001061688900B0FBF1F0B0FBF5F05D
:1019200006EB0016FEF7BCFF00EBC00101EB001058
:1019300061688900B0FBF1F7FEF7B2FFD2E0914297
:1019400001D081423DD1FEF7ABFF00EBC00101EBBE
:10195000001061684900B0FBF1F0B0FBF5F0060142
:10196000FEF79EFF00EBC00101EB0010616849002B
:10197000B0FBF1F7FEF794FF00EBC00101EB0010A4
:1019800061684900B0FBF1F0B0FBF5F06FF01801B1
:10199000484307EB800108EBC100B0FBF5F000F015
:1019A000F80006EB4006FEF77BFF00EBC00101EB01
:1019B000001061684900B0FBF1F7FEF771FF3CE0F1
:1019C00055E0FEF755FF00EBC00101EB0010616828
:1019D0004900B0FBF1F0B0FBF5F00601FEF748FF5F
:1019E00000EBC00101EB001061684900B0FBF1F7AA
:1019F000FEF73EFF00EBC00101EB001061684900FB
:101A0000B0FBF1F0B0FBF5F06FF01801484307EBC5
:101A1000800108EBC100B0FBF5F000F0F80006EB28
:101A20004006FEF725FF00EBC00101EB00106168E6
:101A30004900B0FBF1F7FEF71BFF00EBC00101EB23
:101A4000001061684900B0FBF1F0B0FBF5F06FF0F9
:101A50001801484307EB800108EBC100B0FBF5F02B
:101A600000F00700216830448860BDE8F081FEF78F
:101A7000FFFE00EBC00101EB001061688900B0FBC4
:101A8000F1F6FEF7F5FE00EBC00101EB0010616816
:101A90008900B0FBF1F0B0FBF5F06FF0180148439E
:101AA00006EB800108EB0110B0FBF5F000F0F0064A
:101AB000FEF7DEFE00EBC00101EB0010616889005B
:101AC000B0FBF1F0B0FBF5F006EB0016FEF7D0FE30
:101AD00000EBC00101EB001061688900B0FBF1F779
:101AE000FEF7C6FE00EBC00101EB00106168890043
:101AF000B0FBF1F0B0FBF5F06FF01801484307EBD5
:101B0000800108EB0110B0FBF5F000F00F00A9E731
:101B100000140140001001402DE9F041984617469D
:101B20000E460446069D1DE0681C1BD02DB1FEF735
:101B300071FDA0EB0800A84214D92068C16821F407
:101B4000D071C1602068416921F00101416120200C
:101B500084F8390084F83A00002084F83800032023
:101B6000BDE8F0812068006836EA000004D000205B
:101B7000B842D9D00020F3E70120F9E7FEE70000E2
:101B80000FB4054B10B503A9044A029800F018F8E9
:101B900010BC5DF814FB0000151D00083C0000207F
:101BA00002E008C8121F08C1002AFAD17047704726
:101BB000002001E001C1121F002AFBD17047000084
:101BC0002DE9FF4F89B09B460446002506E02528F5
:101BD0000BD05A460B999047641C6D1C2078002846
:101BE000F5D10DB02846BDE8F08F0027B846012298
:101BF000474900E0074314F8013F203B02FA03F095
:101C00000842F7D120782E2819D114F8010F47F097
:101C100004072A280ED06FF02F022078A0F130019F
:101C200009290CD808EB880102EB410100EB0108FF
:101C3000641CF2E70A98641C50F8048B0A90207820
:101C40000028CED0642808D0692806D075281ED078
:101C50005A460B9990476D1C58E00A994FF00A09B3
:101C600001C90A91002802DA40422D2102E039051B
:101C700004D52B218DF82010012103E0F90704D0B1
:101C80002021F7E78A4608AE0DE00021FAE70A991D
:101C90004FF00A0901C90A91F7E74946FEF75AFBD6
:101CA000303106F8011D0028F7D1ADEB060000F138
:101CB0002009780701D44FF00108C84502DDA8EBE0
:101CC000090000E000208046002706E008A85A46E8
:101CD000C05D0B9990476D1C7F1C5745F6DB04E0F7
:101CE00030205A460B9990476D1CB8F10001A8F1BD
:101CF0000108F5DC05E016F8010B5A460B999047F0
:101D00006D1CB9F10001A9F10109F4DC641C65E75F
:101D10000928010038B504468DF80000022301228D
:101D200069460248FFF79CFB204638BD8000002032
:101D3000FEF77EFCFFF776FCFFF7F0FB1448134933
:101D40000C2201604FF4E131416000218160C160EB
:101D5000C0E904128161C161FFF71BFBFFF70CFCB6
:101D60000B4800214038FFF715FA09480421403894
:101D7000FFF710FA064808214038FFF70BFA04482D
:101D80000C214038FFF706FAFEE700000010014082
:101D90008000002000000000000000000102030499
:101DA000060708090000000001020304CC1D00081A
:101DB0000000002040000000A01B00080C1E0008CE
:101DC0004000002080040000B01B0008000000005C
:101DD0000000000000000000000000000000000003
:101DE00000000000000000000000000000000000F3
:101DF00000000000000000000000000000000000E3
:0C1E0000000000000024F40000000000BE
:040000050800018569
:00000001FF
